:1000000071C000008CC000008AC0000088C00000E1
:1000100086C0000084C0000082C0000080C00000D4
:100020007EC000008FC000007AC0000078C00000D1
:1000300076C0000074C0000072C0000070C00000F4
:100040006EC000006CC000006AC0000068C0000004
:1000500066C0000064C0000062C0000060C0000014
:100060005EC000005CC000005AC0000058C0000024
:1000700056C0000054C0000052C0000050C0000034
:100080004EC000004CC000004AC0000048C0000044
:1000900046C0000044C0000042C0000040C0000054
:1000A0003EC000003CC000003AC0000038C0000064
:1000B00036C0000034C0000032C0000030C0000074
:1000C0002EC000002CC000002AC0000028C0000084
:1000D00026C0000024C0000022C0000020C0000094
:1000E0001EC0000011241FBECFEFD1E2DEBFCDBF86
:1000F00012E0A0E0B2E0E6EAF4E000E00BBF02C0EC
:1001000007900D92AA33B107D9F712E0AAE3B2E043
:1001100001C01D92A536B107E1F737D1C2C170CF3A
:10012000229A2398219A209A982F91709065282FCF
:1001300030E022703070220F331F922B9CBD8470F0
:100140008DBD08951F920F920FB60F920BB60F92AE
:1001500011242F933F934F938F939F93EF93FF938C
:1001600080910B01826080930B018091370288237C
:1001700009F04DC01B9B4BC030913802303839F527
:100180008FB7F894209164028FBF222301F1E09190
:100190005D02F0915E024191F0935E02E0935D0298
:1001A0008091610290916202E817F90741F4809111
:1001B0005F029091600290935E0280935D028FB720
:1001C000F8942150209364028FBF40933A028091AB
:1001D0003A02832321F080910B01816003C080915A
:1001E0000B018E7F80930B01832F869580933802BD
:1001F000882319F480E8809338028FB7F8948FBF72
:1002000080916402882319F481E080933702809101
:100210000B018D7F80930B01FF91EF919F918F9147
:100220004F913F912F910F900BBE0F900FBE0F90EB
:100230001F90189528988EBD0DB407FEFDCF8EB582
:10024000289A0895289880E38EBD0DB407FEFDCF4F
:100250008EB51B99FECF289A089528988EBD0DB4AF
:1002600007FEFDCF8EB56EBD0DB407FEFDCF8EB57A
:10027000289A089528988EBD0DB407FEFDCF8EB53F
:10028000FB0190E008C080818EBD0DB407FEFDCF5C
:100290008EB59F5F31969417B0F3289A08950F9307
:1002A0001F938C0181E0F8016081D7DF82E0F801C3
:1002B0006181D3DF83E0F8016281CFDF84E0F80160
:1002C0006381CBDF85E0F8016481C7DF86E0F80158
:1002D0006581C3DF88E0F8016681BFDF89E0F8014E
:1002E0006781BBDF8AE0F8016085B7DF8DE0F80148
:1002F0006185B3DF8EE0F8016285AFDF8FE0F80142
:100300006385ABDF80E1F8016485A7DF81E1F80157
:100310006585A3DF82E1F80166859FDF83E1F8014F
:1003200067859BDF84E1F801608997DF85E1F8014B
:10033000618993DF87E1F80162898FDF88E1F80145
:1003400063898BDF82E2F801648987DF83E2F80149
:10035000658983DF84E2F80166897FDF85E2F80141
:1003600067897BDF86E2F801608D77DF89E2F8013B
:10037000618D73DF8AE2F801628D6FDF8CE2F80134
:10038000638D6BDF1F910F910895CF93DF9380E80A
:10039000809361001092610080910A0181608093D6
:1003A0000A0180910A01826080930A0180E0B8DE30
:1003B0008CB580648CBD80916800816080936800FA
:1003C00080916B00886080936B0078942FB7F894CD
:1003D0008BE392E090935C0280935B0290935E02C9
:1003E00080935D029093600280935F028096909369
:1003F00062028093610280E2809363021092640241
:100400002FBF20DF80E092E04ADF8EE76CE172E0F0
:1004100048E030DF40E050E0C0E9D1E02BC0A091DF
:100420005B02B0915C02FA01EC5DFD4F80818C9320
:1004300080915B0290915C02019690935C028093A4
:100440005B0220916102309162028217930741F4AE
:1004500080915F029091600290935C0280935B02B6
:100460009FB7F894809164028F5F809364029FBF6E
:100470004F5F5F4F4231510594F285E3DBDE10920E
:100480003702809137028823E1F381E3D3DE80E1F4
:1004900097E2FE013197F1F70197D9F740E050E07C
:0604A000E9CFF894FFCF44
:1004A6000B0C07D391FF12000021656A87F8002222
:1004B600F850301815E92A001F593509010B25682F
:1004C6006086CCC3E24DA49B69B6DA6D249269249A
:0A04D6009249249249A4120180000B
:00000001FF
