:1000000071C000008CC000008AC0000088C00000E1
:1000100086C0000084C0000082C0000080C00000D4
:100020007EC00000B1C000007AC0000078C00000AF
:1000300076C0000074C0000072C0000070C00000F4
:100040006EC000006CC000006AC0000068C0000004
:1000500066C0000064C0000062C0000060C0000014
:100060005EC000005CC000005AC0000058C0000024
:1000700056C0000054C0000052C0000050C0000034
:100080004EC000004CC000004AC0000048C0000044
:1000900046C0000044C0000042C0000040C0000054
:1000A0003EC000003CC000003AC0000038C0000064
:1000B00036C0000034C0000032C0000030C0000074
:1000C0002EC000002CC000002AC0000028C0000084
:1000D00026C0000024C0000022C0000020C0000094
:1000E0001EC0000011241FBECFEFD1E2DEBFCDBF86
:1000F00012E0A0E0B2E0E6EBF4E000E00BBF02C0EB
:1001000007900D92A833B107D9F712E0A8E3B2E047
:1001100001C01D92A336B107E1F74FD1CAC170CF1C
:10012000229A2398219A209A982F91709065282FCF
:1001300030E022703070220F331F922B9CBD8470F0
:100140008DBD0895EAE0F1E0808181608083E8E67A
:10015000F0E0808181608083EBE6F0E08081886060
:10016000808378940895EAE0F1E080818E7F808337
:10017000E8E6F0E080818E7F8083EBE6F0E080812E
:10018000877F8083F89408951F920F920FB60F9285
:100190000BB60F9211242F933F934F938F939F93FE
:1001A000EF93FF9380913602882309F04DC01B9B8B
:1001B0004BC030913702303839F58FB7F894209121
:1001C00062028FBF222301F1E0915B02F0915C0299
:1001D0004191F0935C02E0935B0280915F02909109
:1001E0006002E817F90741F480915D0290915E0288
:1001F00090935C0280935B028FB7F8942150209318
:1002000062028FBF4093380280913802832321F02D
:1002100080910B01816003C080910B018E7F8093E0
:100220000B01832F869580933702882369F480E839
:10023000809337028FB7F8948FBF80916202882332
:1002400019F481E080933602FF91EF919F918F9195
:100250004F913F912F910F900BBE0F900FBE0F90BB
:100260001F90189528988EBD0DB407FEFDCF8EB552
:10027000289A0895289880E38EBD0DB407FEFDCF1F
:100280008EB51B99FECF289A089528988EBD0DB47F
:1002900007FEFDCF8EB56EBD0DB407FEFDCF8EB54A
:1002A000289A089528988EBD0DB407FEFDCF8EB50F
:1002B000FB0190E008C080818EBD0DB407FEFDCF2C
:1002C0008EB59F5F31969417B0F3289A08950F93D7
:1002D0001F938C0181E0F8016081D7DF82E0F80193
:1002E0006181D3DF83E0F8016281CFDF84E0F80130
:1002F0006381CBDF85E0F8016481C7DF86E0F80128
:100300006581C3DF88E0F8016681BFDF89E0F8011D
:100310006781BBDF8AE0F8016085B7DF8DE0F80117
:100320006185B3DF8EE0F8016285AFDF8FE0F80111
:100330006385ABDF80E1F8016485A7DF81E1F80127
:100340006585A3DF82E1F80166859FDF83E1F8011F
:1003500067859BDF84E1F801608997DF85E1F8011B
:10036000618993DF87E1F80162898FDF88E1F80115
:1003700063898BDF82E2F801648987DF83E2F80119
:10038000658983DF84E2F80166897FDF85E2F80111
:1003900067897BDF86E2F801608D77DF89E2F8010B
:1003A000618D73DF8AE2F801628D6FDF8CE2F80104
:1003B000638D6BDF1F910F910895CF93DF9380E8DA
:1003C000809361001092610080E0AADE8CB58064A9
:1003D0008CBD2FB7F89489E392E090935A028093F2
:1003E000590290935C0280935B0290935E0280932B
:1003F0005D0280969093600280935F0280E280931A
:100400006102109262022FBF35DF80E092E05FDF71
:100410008EE76CE172E048E045DFC0E9D1E085E3BA
:1004200021DF90DE40E050E036C0E0915902F091CB
:100430005A028C9180838091590290915A020196C0
:1004400090935A028093590220915F02309160028A
:100450008217930741F480915D0290915E02909320
:100460005A02809359029FB7F894809162028F5F7D
:10047000809362029FBF119682E0A633B807A9F667
:1004800010923602809136028823E1F34F5F5F4F6E
:100490004233510519F0A4E2B2E0EECF64DE86E308
:1004A000E1DE80E593ECFE013197F1F70197D9F792
:0604B000B6CFF894FFCF67
:1004B6000B0C07D391FF12000021656A87F8002212
:1004C600F850301815E92A001F593509010B25681F
:1004D6006086CCC3E24DA49B69B6DA6D249269248A
:0804E6009249249249A401800F
:00000001FF
