:1000000071C0000084C0000082C0000080C00000F9
:100010007EC000007CC000007AC0000078C00000F4
:1000200076C0000074C0000072C0000070C0000004
:100030006EC000006CC000006AC0000068C0000014
:1000400066C0000064C0000062C0000060C0000024
:100050005EC000005CC000005AC0000058C0000034
:1000600056C0000054C0000052C0000050C0000044
:100070004EC000004CC000004AC0000048C0000054
:1000800046C0000044C0000042C0000040C0000064
:100090003EC000003CC000003AC0000038C0000074
:1000A00036C0000034C0000032C0000030C0000084
:1000B0002EC000002CC000002AC0000028C0000094
:1000C00026C0000024C0000022C0000020C00000A4
:1000D0001EC000001CC000001AC0000018C00000B4
:1000E00016C0000011241FBECFEFD1E2DEBFCDBF8E
:1000F00012E0A0E0B2E0E4E0F3E000E00BBF02C0F9
:1001000007900D92A432B107D9F7BFD0F9C078CFCC
:10011000229A2398219A209A282F237020652CBD9B
:1001200090E0969587959695879581708DBD0895F9
:1001300028988EBD0DB407FEFDCF8EB5289A85E3B5
:100140008A95F1F7089528988EBD0DB407FEFDCF6E
:100150008EB56EBD0DB407FEFDCF8EB5289A85E332
:100160008A95F1F7089528988EBD0DB407FEFDCF4E
:100170008EB5FB0190E025E30BC080818EBD0DB4F0
:1001800007FEFDCF8EB5822F8A95F1F79F5F3196DE
:10019000941798F3289A85E38A95F1F708950F93B9
:1001A0001F938C0181E0F8016081CDDF82E0F801CE
:1001B0006181C9DF83E0F8016281C5DF84E0F80175
:1001C0006381C1DF85E0F8016481BDDF86E0F8016D
:1001D0006581B9DF88E0F8016681B5DF89E0F80163
:1001E0006781B1DF8AE0F8016085ADDF8DE0F8015D
:1001F0006185A9DF8EE0F8016285A5DF8FE0F80157
:100200006385A1DF80E1F80164859DDF81E1F8016C
:10021000658599DF82E1F801668595DF83E1F80164
:10022000678591DF84E1F80160898DDF85E1F80160
:10023000618989DF87E1F801628985DF88E1F8015A
:10024000638981DF82E2F80164897DDF83E2F8015E
:10025000658979DF84E2F801668975DF85E2F80156
:10026000678971DF86E2F801608D6DDF89E2F80150
:10027000618D69DF8AE2F801628D65DF8CE2F80149
:10028000638D61DF1F910F91089580E88093610075
:100290001092610080910A01816080930A0182E0DE
:1002A00037DF8CB580648CBD85E38A95F1F780E3F8
:1002B0003FDF80E991E00197F1F780E092E06FDFA6
:1002C0008EE76CE172E048E04EDF85E331DF82E0EB
:1002D0006CE039DF81E06BE036DF20E832E08091CE
:1002E0000B01816080930B01C9010197F1F78091A7
:1002F0000B018E7F80930B01C9010197F1F7EFCFBE
:04030000F894FFCF9F
:100304000B0C07D391FF12000021656A87F80022C5
:10031400F850301815E92A001F593509010B2568D2
:040324006086CCC360
:00000001FF
