:1000000071C0000084C0000082C0000080C00000F9
:100010007EC000007CC000007AC0000078C00000F4
:1000200076C0000085C0000072C0000070C00000F3
:100030006EC000006CC000006AC0000068C0000014
:1000400066C0000064C0000062C0000060C0000024
:100050005EC000005CC000005AC0000058C0000034
:1000600056C0000054C0000052C0000050C0000044
:100070004EC000004CC000004AC0000048C0000054
:1000800046C0000044C0000042C0000040C0000064
:100090003EC000003CC000003AC0000038C0000074
:1000A00036C0000034C0000032C0000030C0000084
:1000B0002EC000002CC000002AC0000028C0000094
:1000C00026C0000024C0000022C0000020C00000A4
:1000D0001EC000001CC000001AC0000018C00000B4
:1000E00016C0000011241FBECFEFD1E2DEBFCDBF8E
:1000F00012E0A0E0B2E0EEE0F3E000E00BBF02C0EF
:1001000007900D92A432B107D9F7D3D0FEC078CFB3
:10011000229A2398219A209A282F237020652CBD9B
:1001200090E0969587959695879581708DBD0895F9
:100130001F920F920FB60F9211248F939F931B99CA
:1001400006C080910B0191E0892780930B019F915C
:100150008F910F900FBE0F901F90189528988EBD0D
:100160000DB407FEFDCF8EB5289A0895289880E338
:100170008EBD0DB407FEFDCF8EB51B99FECF289A1C
:10018000089528988EBD0DB407FEFDCF8EB56EBDC7
:100190000DB407FEFDCF8EB5289A089528988EBD20
:1001A0000DB407FEFDCF8EB5FB0190E008C0808145
:1001B0008EBD0DB407FEFDCF8EB59F5F31969417AF
:1001C000B0F3289A08950F931F938C0181E0F801F2
:1001D0006081D7DF82E0F8016181D3DF83E0F8013D
:1001E0006281CFDF84E0F8016381CBDF85E0F80135
:1001F0006481C7DF86E0F8016581C3DF88E0F8012C
:100200006681BFDF89E0F8016781BBDF8AE0F80122
:100210006085B7DF8DE0F8016185B3DF8EE0F8011E
:100220006285AFDF8FE0F8016385ABDF80E1F80125
:100230006485A7DF81E1F8016585A3DF82E1F8012C
:1002400066859FDF83E1F80167859BDF84E1F80124
:10025000608997DF85E1F801618993DF87E1F80123
:1002600062898FDF88E1F80163898BDF82E2F80120
:10027000648987DF83E2F801658983DF84E2F8011E
:1002800066897FDF85E2F80167897BDF86E2F80116
:10029000608D77DF89E2F801618D73DF8AE2F80112
:1002A000628D6FDF8CE2F801638D6BDF1F910F9120
:1002B000089580E8809361001092610080910A01A6
:1002C000816080930A0180E023DF8CB580648CBD5F
:1002D0008091680081608093680080916B008860E5
:1002E00080936B00789442DF80E092E06CDF8EE7D1
:1002F0006CE172E048E052DF85E330DF82E06CE0E1
:0E03000040DF81E06BE03DDFFFCFF894FFCFE0
:10030E000B0C07D391FF12000021656A87F80022BB
:10031E00F850301815E92A001F593509010B2568C8
:04032E006086CCC356
:00000001FF
