:1000000071C000008CC000008AC0000088C00000E1
:1000100086C0000084C0000082C0000080C00000D4
:100020007EC00000B1C000007AC0000078C00000AF
:1000300076C0000074C0000072C0000070C00000F4
:100040006EC000006CC000006AC0000068C0000004
:1000500066C0000064C0000062C0000060C0000014
:100060005EC000005CC000005AC0000058C0000024
:1000700056C0000054C0000052C0000050C0000034
:100080004EC000004CC000004AC0000048C0000044
:1000900046C0000044C0000042C0000040C0000054
:1000A0003EC000003CC000003AC0000038C0000064
:1000B00036C0000034C0000032C0000030C0000074
:1000C0002EC000002CC000002AC0000028C0000084
:1000D00026C0000024C0000022C0000020C0000094
:1000E0001EC0000011241FBECFEFD1E2DEBFCDBF86
:1000F00012E0A0E0B2E0E6E6F4E000E00BBF02C0F0
:1001000007900D92AA32B107D9F712E0AAE2B2E045
:1001100001C01D92A033B107E1F75BD1A2C170CF3E
:10012000229A2398219A209A982F91709065282FCF
:1001300030E022703070220F331F922B9CBD8470F0
:100140008DBD0895EAE0F1E0808181608083E8E67A
:10015000F0E0808181608083EBE6F0E08081886060
:10016000808378940895EAE0F1E080818E7F808337
:10017000E8E6F0E080818E7F8083EBE6F0E080812E
:10018000877F8083F89408951F920F920FB60F9285
:100190000BB60F9211248F939F93EF93FF9380914F
:1001A0002D02882309F45FC01B9B5DC080912C0247
:1001B00090912A028823B9F0933020F480910B01AA
:1001C000816003C080910B018E7F80930B01892F8A
:1001D0008F5F80932A02863008F445C010922C026B
:1001E00010922A0240C09F5F90932A029150913052
:1001F00029F0913068F09230B1F514C0E0912B02F3
:10020000F0E0EC5DFD4F808190912F02892321F079
:1002100080910B01816003C080910B018E7F8093E0
:100220000B0121C080910B018E7F80930B011092F6
:100230002A0280912F02869580932F02882399F4B9
:1002400080E880932F0280912B028F5F80932B0296
:1002500090912E02891738F010922D0210922B02E5
:1002600081E080932C02FF91EF919F918F910F90ED
:100270000BBE0F900FBE0F901F90189528988EBD43
:100280000DB407FEFDCF8EB5289A0895289880E317
:100290008EBD0DB407FEFDCF8EB51B99FECF289AFB
:1002A000089528988EBD0DB407FEFDCF8EB56EBDA6
:1002B0000DB407FEFDCF8EB5289A089528988EBDFF
:1002C0000DB407FEFDCF8EB5FB0190E008C0808124
:1002D0008EBD0DB407FEFDCF8EB59F5F319694178E
:1002E000B0F3289A08950F931F938C0181E0F801D1
:1002F0006081D7DF82E0F8016181D3DF83E0F8011C
:100300006281CFDF84E0F8016381CBDF85E0F80113
:100310006481C7DF86E0F8016581C3DF88E0F8010A
:100320006681BFDF89E0F8016781BBDF8AE0F80101
:100330006085B7DF8DE0F8016185B3DF8EE0F801FD
:100340006285AFDF8FE0F8016385ABDF80E1F80104
:100350006485A7DF81E1F8016585A3DF82E1F8010B
:1003600066859FDF83E1F80167859BDF84E1F80103
:10037000608997DF85E1F801618993DF87E1F80102
:1003800062898FDF88E1F80163898BDF82E2F801FF
:10039000648987DF83E2F801658983DF84E2F801FD
:1003A00066897FDF85E2F80167897BDF86E2F801F5
:1003B000608D77DF89E2F801618D73DF8AE2F801F1
:1003C000628D6FDF8CE2F801638D6BDF1F910F91FF
:1003D00008950F931F93CF93DF9380E8809361007C
:1003E0001092610080E09CDE8CB580648CBD8091B1
:1003F0000A01826080930A0180910A0184608093DF
:100400000A0144DF80E092E06EDF8EE76CE172E08B
:1004100048E054DF11E006E0C0E9D1E085E32EDFDB
:1004200091DE20E030E010932D0280912D02882390
:10043000E1F72F5F3F4F22333105A9F710932C02CC
:1004400010922F0210922B0200932E028CDE86E374
:1004500015DF80E593ECFE013197F1F70197D9F7AD
:06046000DDCFF894FFCF90
:100466000B0C07D391FF12000021656A87F8002262
:10047600F850301815E92A001F593509010B25686F
:0A0486006086CCC330D01050001186
:00000001FF
