:1000000071C000008CC000008AC0000088C00000E1
:1000100086C0000084C0000082C0000080C00000D4
:100020007EC00000B1C000007AC0000078C00000AF
:1000300076C0000074C0000072C0000070C00000F4
:100040006EC000006CC000006AC0000068C0000004
:1000500066C0000064C0000062C0000060C0000014
:100060005EC000005CC000005AC0000058C0000024
:1000700056C0000054C0000052C0000050C0000034
:100080004EC000004CC000004AC0000048C0000044
:1000900046C0000044C0000042C0000040C0000054
:1000A0003EC000003CC000003AC0000038C0000064
:1000B00036C0000034C0000032C0000030C0000074
:1000C0002EC000002CC000002AC0000028C0000084
:1000D00026C0000024C0000022C0000020C0000094
:1000E0001EC0000011241FBECFEFD1E2DEBFCDBF86
:1000F00012E0A0E0B2E0E4ECF4E000E00BBF02C0EC
:1001000007900D92AA33B107D9F712E0AAE3B2E043
:1001100001C01D92A536B107E1F756D1D1C170CF0C
:10012000229A2398219A209A982F91709065282FCF
:1001300030E022703070220F331F922B9CBD8470F0
:100140008DBD0895EAE0F1E0808181608083E8E67A
:10015000F0E0808181608083EBE6F0E08081886060
:10016000808378940895EAE0F1E080818E7F808337
:10017000E8E6F0E080818E7F8083EBE6F0E080812E
:10018000877F8083F89408951F920F920FB60F9285
:100190000BB60F9211242F933F934F938F939F93FE
:1001A000EF93FF9380913702882309F054C01B9B83
:1001B00052C030913802303839F58FB7F894209119
:1001C00064028FBF222301F1E0915D02F0915E0293
:1001D0004191F0935E02E0935D0280916102909103
:1001E0006202E817F90741F480915F029091600282
:1001F00090935E0280935D028FB7F8942150209314
:1002000064028FBF40933A0280913A02832321F027
:1002100080910B01816003C080910B018E7F8093E0
:100220000B01832F869580933802882319F480E888
:10023000809338028FB7F8948FBF8091640288232F
:1002400051F480913802823031F481E0809337029A
:1002500080E880933802FF91EF919F918F914F91A9
:100260003F912F910F900BBE0F900FBE0F901F90DC
:10027000189528988EBD0DB407FEFDCF8EB5289A2F
:100280000895289880E38EBD0DB407FEFDCF8EB58E
:100290001B99FECF289A089528988EBD0DB407FEAD
:1002A000FDCF8EB56EBD0DB407FEFDCF8EB5289A7D
:1002B000089528988EBD0DB407FEFDCF8EB5FB01C5
:1002C00090E008C080818EBD0DB407FEFDCF8EB5D5
:1002D0009F5F31969417B0F3289A08950F931F9358
:1002E0008C0181E0F8016081D7DF82E0F801618153
:1002F000D3DF83E0F8016281CFDF84E0F80163811E
:10030000CBDF85E0F8016481C7DF86E0F801658115
:10031000C3DF88E0F8016681BFDF89E0F80167810B
:10032000BBDF8AE0F8016085B7DF8DE0F801618509
:10033000B3DF8EE0F8016285AFDF8FE0F8016385FF
:10034000ABDF80E1F8016485A7DF81E1F801658515
:10035000A3DF82E1F80166859FDF83E1F80167850D
:100360009BDF84E1F801608997DF85E1F80161890D
:1003700093DF87E1F80162898FDF88E1F801638903
:100380008BDF82E2F801648987DF83E2F801658907
:1003900083DF84E2F80166897FDF85E2F8016789FF
:1003A0007BDF86E2F801608D77DF89E2F801618DFD
:1003B00073DF8AE2F801628D6FDF8CE2F801638DF2
:1003C0006BDF1F910F910895CF93DF9380E88093A7
:1003D00061001092610080E0A3DE8CB580648CBD6A
:1003E0002FB7F8948BE392E090935C0280935B02CA
:1003F00090935E0280935D029093600280935F020F
:100400008096909362028093610280E280936302FF
:10041000109264022FBF35DF80E092E05FDF8EE74D
:100420006CE172E048E045DFC0E9D1E085E321DF1F
:1004300089DE40E050E036C0E0915B02F0915C0262
:100440008C91808380915B0290915C0201969093E5
:100450005C0280935B0220916102309162028217FC
:10046000930741F480915F029091600290935C0247
:1004700080935B029FB7F894809164028F5F8093B2
:1004800064029FBF119682E0A733B807A9F61092C5
:100490003702809137028823E1F34F5F5F4F423389
:1004A000510519F0A4E2B2E0EECF5DDE86E3E1DEB5
:1004B00080E593ECFE013197F1F70197D9F7B6CFBC
:0404C000F894FFCFDE
:1004C4000B0C07D391FF12000021656A87F8002204
:1004D400F850301815E92A001F593509010B256811
:1004E4006086CCC3E24DA49369A49249A49269A402
:0A04F4009249249249A49B01800064
:00000001FF
